{
  "_format": "hh-sol-artifact-1",
  "contractName": "SubscriptionEthLive",
  "sourceName": "contracts/ethlive.sol",
  "abi": [
    {
      "anonymous": false,
      "inputs": [
        {
          "indexed": false,
          "internalType": "uint256",
          "name": "streamer_id",
          "type": "uint256"
        },
        {
          "indexed": false,
          "internalType": "address",
          "name": "participant_addr",
          "type": "address"
        },
        {
          "indexed": false,
          "internalType": "uint256",
          "name": "reward",
          "type": "uint256"
        }
      ],
      "name": "CashOut",
      "type": "event"
    },
    {
      "anonymous": false,
      "inputs": [
        {
          "indexed": false,
          "internalType": "uint256",
          "name": "streamer_id",
          "type": "uint256"
        },
        {
          "indexed": false,
          "internalType": "address",
          "name": "reviewer_addr",
          "type": "address"
        },
        {
          "indexed": false,
          "internalType": "address",
          "name": "reviewed_addr",
          "type": "address"
        },
        {
          "indexed": false,
          "internalType": "uint256",
          "name": "points",
          "type": "uint256"
        }
      ],
      "name": "RatingSubmited",
      "type": "event"
    },
    {
      "anonymous": false,
      "inputs": [
        {
          "indexed": false,
          "internalType": "uint256",
          "name": "streamer_id",
          "type": "uint256"
        },
        {
          "indexed": false,
          "internalType": "address",
          "name": "participant_addr",
          "type": "address"
        }
      ],
      "name": "Registration",
      "type": "event"
    },
    {
      "anonymous": false,
      "inputs": [
        {
          "indexed": false,
          "internalType": "uint256",
          "name": "streamer_id",
          "type": "uint256"
        },
        {
          "indexed": false,
          "internalType": "uint256",
          "name": "value",
          "type": "uint256"
        }
      ],
      "name": "SponsorshipSubmited",
      "type": "event"
    },
    {
      "anonymous": false,
      "inputs": [
        {
          "indexed": false,
          "internalType": "address",
          "name": "stream_host",
          "type": "address"
        },
        {
          "indexed": false,
          "internalType": "uint256",
          "name": "streamer_id",
          "type": "uint256"
        },
        {
          "indexed": false,
          "internalType": "string",
          "name": "image_hash",
          "type": "string"
        },
        {
          "indexed": false,
          "internalType": "string",
          "name": "name",
          "type": "string"
        },
        {
          "indexed": false,
          "internalType": "uint256",
          "name": "creation_time",
          "type": "uint256"
        }
      ],
      "name": "SubscriptionCreation",
      "type": "event"
    },
    {
      "anonymous": false,
      "inputs": [
        {
          "indexed": false,
          "internalType": "uint256",
          "name": "streamer_id",
          "type": "uint256"
        }
      ],
      "name": "SubscriptionFinished",
      "type": "event"
    },
    {
      "anonymous": false,
      "inputs": [
        {
          "indexed": false,
          "internalType": "uint256",
          "name": "streamer_id",
          "type": "uint256"
        }
      ],
      "name": "SubscriptionReviewEnabled",
      "type": "event"
    },
    {
      "inputs": [
        {
          "internalType": "string",
          "name": "image_hash",
          "type": "string"
        },
        {
          "internalType": "string",
          "name": "_name",
          "type": "string"
        }
      ],
      "name": "createSubscription",
      "outputs": [],
      "stateMutability": "nonpayable",
      "type": "function"
    },
    {
      "inputs": [
        {
          "internalType": "uint256",
          "name": "streamer_id",
          "type": "uint256"
        }
      ],
      "name": "enableSubscriptionReview",
      "outputs": [],
      "stateMutability": "nonpayable",
      "type": "function"
    },
    {
      "inputs": [
        {
          "internalType": "uint256",
          "name": "streamer_id",
          "type": "uint256"
        }
      ],
      "name": "finishSubscription",
      "outputs": [],
      "stateMutability": "nonpayable",
      "type": "function"
    },
    {
      "inputs": [
        {
          "internalType": "uint256",
          "name": "streamer_id",
          "type": "uint256"
        }
      ],
      "name": "forceFinishSubscription",
      "outputs": [],
      "stateMutability": "nonpayable",
      "type": "function"
    },
    {
      "inputs": [
        {
          "internalType": "uint256",
          "name": "streamer_id",
          "type": "uint256"
        }
      ],
      "name": "forceFinishSubscriptionFromReview",
      "outputs": [],
      "stateMutability": "nonpayable",
      "type": "function"
    },
    {
      "inputs": [
        {
          "internalType": "uint256",
          "name": "streamer_id",
          "type": "uint256"
        }
      ],
      "name": "join",
      "outputs": [],
      "stateMutability": "payable",
      "type": "function"
    },
    {
      "inputs": [
        {
          "internalType": "uint256",
          "name": "",
          "type": "uint256"
        },
        {
          "internalType": "address",
          "name": "",
          "type": "address"
        }
      ],
      "name": "participant_has_cashed_out",
      "outputs": [
        {
          "internalType": "bool",
          "name": "",
          "type": "bool"
        }
      ],
      "stateMutability": "view",
      "type": "function"
    },
    {
      "inputs": [
        {
          "internalType": "uint256",
          "name": "",
          "type": "uint256"
        },
        {
          "internalType": "address",
          "name": "",
          "type": "address"
        },
        {
          "internalType": "address",
          "name": "",
          "type": "address"
        }
      ],
      "name": "participant_ratings",
      "outputs": [
        {
          "internalType": "uint256",
          "name": "",
          "type": "uint256"
        }
      ],
      "stateMutability": "view",
      "type": "function"
    },
    {
      "inputs": [
        {
          "internalType": "uint256",
          "name": "streamer_id",
          "type": "uint256"
        }
      ],
      "name": "sponsor",
      "outputs": [],
      "stateMutability": "payable",
      "type": "function"
    },
    {
      "inputs": [],
      "name": "streamer_count",
      "outputs": [
        {
          "internalType": "uint256",
          "name": "",
          "type": "uint256"
        }
      ],
      "stateMutability": "view",
      "type": "function"
    },
    {
      "inputs": [
        {
          "internalType": "uint256",
          "name": "",
          "type": "uint256"
        },
        {
          "internalType": "address",
          "name": "",
          "type": "address"
        }
      ],
      "name": "streamer_participants",
      "outputs": [
        {
          "internalType": "address",
          "name": "addr",
          "type": "address"
        },
        {
          "internalType": "uint256",
          "name": "points",
          "type": "uint256"
        }
      ],
      "stateMutability": "view",
      "type": "function"
    },
    {
      "inputs": [
        {
          "internalType": "uint256",
          "name": "",
          "type": "uint256"
        }
      ],
      "name": "streamers",
      "outputs": [
        {
          "internalType": "address",
          "name": "host_addr",
          "type": "address"
        },
        {
          "internalType": "enum SubscriptionEthLive.SubscriptionState",
          "name": "state",
          "type": "uint8"
        },
        {
          "internalType": "string",
          "name": "image_hash",
          "type": "string"
        },
        {
          "internalType": "string",
          "name": "name",
          "type": "string"
        },
        {
          "internalType": "uint256",
          "name": "pot",
          "type": "uint256"
        },
        {
          "internalType": "uint256",
          "name": "creation_time",
          "type": "uint256"
        },
        {
          "internalType": "uint256",
          "name": "enable_review_time",
          "type": "uint256"
        }
      ],
      "stateMutability": "view",
      "type": "function"
    },
    {
      "inputs": [
        {
          "internalType": "uint256",
          "name": "",
          "type": "uint256"
        }
      ],
      "name": "total_streamer_points",
      "outputs": [
        {
          "internalType": "uint256",
          "name": "",
          "type": "uint256"
        }
      ],
      "stateMutability": "view",
      "type": "function"
    }
  ],
  "bytecode": "0x6080604052666a94d74f43000060065534801561001b57600080fd5b50610fb88061002b6000396000f3fe6080604052600436106100c25760003560e01c8063761aa7ff1161007f578063b2ce03df11610059578063b2ce03df14610274578063b6cce5e21461028a578063f0b7eb391461029d578063fced5b75146102bd57600080fd5b8063761aa7ff14610201578063873e31ad146102215780638e0bc5701461025457600080fd5b8063049878f3146100c757806328f4e5b1146100dc578063323efb27146100fc5780635de9d2091461013c578063608e82b91461015c57806369d39ebd1461019a575b600080fd5b6100da6100d5366004610c11565b610308565b005b3480156100e857600080fd5b506100da6100f7366004610c11565b6104a0565b34801561010857600080fd5b50610129610117366004610c11565b60056020526000908152604090205481565b6040519081526020015b60405180910390f35b34801561014857600080fd5b506100da610157366004610c11565b61055e565b34801561016857600080fd5b50610129610177366004610c46565b600260209081526000938452604080852082529284528284209052825290205481565b3480156101a657600080fd5b506101e26101b5366004610c82565b6001602081815260009384526040808520909152918352912080549101546001600160a01b039091169082565b604080516001600160a01b039093168352602083019190915201610133565b34801561020d57600080fd5b506100da61021c366004610c11565b6106aa565b34801561022d57600080fd5b5061024161023c366004610c11565b610767565b6040516101339796959493929190610d11565b34801561026057600080fd5b506100da61026f366004610c11565b6108c2565b34801561028057600080fd5b5061012960035481565b6100da610298366004610c11565b610986565b3480156102a957600080fd5b506100da6102b8366004610e2c565b610a36565b3480156102c957600080fd5b506102f86102d8366004610c82565b600460209081526000928352604080842090915290825290205460ff1681565b6040519015158152602001610133565b600654341461035e5760405162461bcd60e51b815260206004820152601b60248201527f416d6f756e74206e6f7420657175616c20746f2070617920666565000000000060448201526064015b60405180910390fd5b600081815260016020908152604080832033845290915290205481906001600160a01b0316156103c95760405162461bcd60e51b815260206004820152601660248201527514185c9d1a58da5c185b9d081a185cc81a9bda5b995960521b6044820152606401610355565b8160008082815260208190526040902054600160a01b900460ff1660028111156103f5576103f5610cae565b146104125760405162461bcd60e51b815260040161035590610e90565b60408051808201825233808252600060208084018281528883526001808352868420858552835292869020855181546001600160a01b0319166001600160a01b03909116178155905192019190915583518781529081019190915290917f4acb3b89fd1a549ca229841770163be3f6caef6a85604f11ee97504944cd0e09910160405180910390a150505050565b60008181526020819052604090205481906001600160a01b031633146105085760405162461bcd60e51b815260206004820152601d60248201527f596f7520617265206e6f74207468652073747265616d657220686f73740000006044820152606401610355565b60008281526020818152604091829020805460ff60a01b1916600160a11b17905590518381527f99b79d0a791c655b35f0fbbea7dc2e84cb303f934cf99ebfb05d4285313e429591015b60405180910390a15050565b806001600082815260208190526040902054600160a01b900460ff16600281111561058b5761058b610cae565b146105e35760405162461bcd60e51b815260206004820152602260248201527f537562736372697074696f6e20726576696577206973206e6f7420656e61626c604482015261195960f21b6064820152608401610355565b60008281526020819052604090206005015482906106049062093a80610ed5565b4210156106535760405162461bcd60e51b815260206004820181905260248201527f74696d65206d7573742062652067726561746572207468616e2031207765656b6044820152606401610355565b60008381526020818152604091829020805460ff60a01b1916600160a11b17905590518481527f99b79d0a791c655b35f0fbbea7dc2e84cb303f934cf99ebfb05d4285313e429591015b60405180910390a1505050565b60008181526020819052604090205481906001600160a01b031633146107125760405162461bcd60e51b815260206004820152601d60248201527f596f7520617265206e6f74207468652073747265616d657220686f73740000006044820152606401610355565b60008281526020818152604091829020805460ff60a01b1916600160a01b1781554260059091015590518381527ff7796428838bb1881b7e508b7584336a838b46e5c7427ecbc3e32ff4aa3af8669101610552565b600060208190529081526040902080546001820180546001600160a01b03831693600160a01b90930460ff1692919061079f90610efb565b80601f01602080910402602001604051908101604052809291908181526020018280546107cb90610efb565b80156108185780601f106107ed57610100808354040283529160200191610818565b820191906000526020600020905b8154815290600101906020018083116107fb57829003601f168201915b50505050509080600201805461082d90610efb565b80601f016020809104026020016040519081016040528092919081815260200182805461085990610efb565b80156108a65780601f1061087b576101008083540402835291602001916108a6565b820191906000526020600020905b81548152906001019060200180831161088957829003601f168201915b5050505050908060030154908060040154908060050154905087565b8060008082815260208190526040902054600160a01b900460ff1660028111156108ee576108ee610cae565b1461090b5760405162461bcd60e51b815260040161035590610e90565b600082815260208190526040902060040154829061092c90624f1a00610ed5565b4210156106535760405162461bcd60e51b815260206004820152602260248201527f74696d65206d7573742062652067726561746572207468616e2032206d6f6e74604482015261687360f01b6064820152608401610355565b806002600082815260208190526040902054600160a01b900460ff1660028111156109b3576109b3610cae565b1415610a015760405162461bcd60e51b815260206004820152601860248201527f537562736372697074696f6e2069732066696e697368656400000000000000006044820152606401610355565b604080518381523460208201527fd7bd62bddd880fdba9c120b8ac24bc6aceeddd8bbb7ef4cfef7bcfae0d9d07cc9101610552565b600160036000828254610a499190610ed5565b90915550506040805160e0810190915233815242906020810160008152602080820186905260408083018690526000606084018190526080840186905260a09093018590526003548352828252909120825181546001600160a01b039091166001600160a01b031982168117835592840151919283916001600160a81b03191617600160a01b836002811115610ae157610ae1610cae565b021790555060408201518051610b01916001840191602090910190610b78565b5060608201518051610b1d916002840191602090910190610b78565b506080820151816003015560a0820151816004015560c082015181600501559050507f614aafe8c572859d679a047fa0ea87a2e4876b9126eb9507bd16dcf301f991943360035485858560405161069d959493929190610f36565b828054610b8490610efb565b90600052602060002090601f016020900481019282610ba65760008555610bec565b82601f10610bbf57805160ff1916838001178555610bec565b82800160010185558215610bec579182015b82811115610bec578251825591602001919060010190610bd1565b50610bf8929150610bfc565b5090565b5b80821115610bf85760008155600101610bfd565b600060208284031215610c2357600080fd5b5035919050565b80356001600160a01b0381168114610c4157600080fd5b919050565b600080600060608486031215610c5b57600080fd5b83359250610c6b60208501610c2a565b9150610c7960408501610c2a565b90509250925092565b60008060408385031215610c9557600080fd5b82359150610ca560208401610c2a565b90509250929050565b634e487b7160e01b600052602160045260246000fd5b6000815180845260005b81811015610cea57602081850181015186830182015201610cce565b81811115610cfc576000602083870101525b50601f01601f19169290920160200192915050565b6001600160a01b0388168152600060038810610d3d57634e487b7160e01b600052602160045260246000fd5b87602083015260e06040830152610d5760e0830188610cc4565b8281036060840152610d698188610cc4565b6080840196909652505060a081019290925260c090910152949350505050565b634e487b7160e01b600052604160045260246000fd5b600082601f830112610db057600080fd5b813567ffffffffffffffff80821115610dcb57610dcb610d89565b604051601f8301601f19908116603f01168101908282118183101715610df357610df3610d89565b81604052838152866020858801011115610e0c57600080fd5b836020870160208301376000602085830101528094505050505092915050565b60008060408385031215610e3f57600080fd5b823567ffffffffffffffff80821115610e5757600080fd5b610e6386838701610d9f565b93506020850135915080821115610e7957600080fd5b50610e8685828601610d9f565b9150509250929050565b60208082526025908201527f537562736372697074696f6e20726567697374726174696f6e206973206e6f746040820152641037b832b760d91b606082015260800190565b60008219821115610ef657634e487b7160e01b600052601160045260246000fd5b500190565b600181811c90821680610f0f57607f821691505b60208210811415610f3057634e487b7160e01b600052602260045260246000fd5b50919050565b60018060a01b038616815284602082015260a060408201526000610f5d60a0830186610cc4565b8281036060840152610f6f8186610cc4565b915050826080830152969550505050505056fea26469706673582212207fda652007a2a82ff5b3902c0ec404e55ad4939db4a0c39f70507b3faeb3e3fc64736f6c634300080a0033",
  "linkReferences": {},
  "deployedLinkReferences": {}
}